{
  "contractName": "ConsentManager",
  "abi": [
    {
      "anonymous": false,
      "inputs": [
        {
          "indexed": true,
          "internalType": "address",
          "name": "patient",
          "type": "address"
        },
        {
          "indexed": true,
          "internalType": "address",
          "name": "doctor",
          "type": "address"
        },
        {
          "indexed": false,
          "internalType": "uint256",
          "name": "timestamp",
          "type": "uint256"
        }
      ],
      "name": "ConsentGranted",
      "type": "event"
    },
    {
      "anonymous": false,
      "inputs": [
        {
          "indexed": true,
          "internalType": "address",
          "name": "patient",
          "type": "address"
        },
        {
          "indexed": true,
          "internalType": "address",
          "name": "doctor",
          "type": "address"
        },
        {
          "indexed": false,
          "internalType": "uint256",
          "name": "timestamp",
          "type": "uint256"
        }
      ],
      "name": "ConsentRevoked",
      "type": "event"
    },
    {
      "inputs": [
        {
          "internalType": "address",
          "name": "",
          "type": "address"
        },
        {
          "internalType": "address",
          "name": "",
          "type": "address"
        }
      ],
      "name": "patientConsents",
      "outputs": [
        {
          "internalType": "address",
          "name": "doctor",
          "type": "address"
        },
        {
          "internalType": "uint256",
          "name": "timestamp",
          "type": "uint256"
        },
        {
          "internalType": "bool",
          "name": "active",
          "type": "bool"
        }
      ],
      "stateMutability": "view",
      "type": "function",
      "constant": true
    },
    {
      "inputs": [
        {
          "internalType": "address",
          "name": "doctor",
          "type": "address"
        }
      ],
      "name": "grantConsent",
      "outputs": [],
      "stateMutability": "nonpayable",
      "type": "function"
    },
    {
      "inputs": [
        {
          "internalType": "address",
          "name": "doctor",
          "type": "address"
        }
      ],
      "name": "revokeConsent",
      "outputs": [],
      "stateMutability": "nonpayable",
      "type": "function"
    },
    {
      "inputs": [
        {
          "internalType": "address",
          "name": "patient",
          "type": "address"
        },
        {
          "internalType": "address",
          "name": "doctor",
          "type": "address"
        }
      ],
      "name": "hasConsent",
      "outputs": [
        {
          "internalType": "bool",
          "name": "",
          "type": "bool"
        }
      ],
      "stateMutability": "view",
      "type": "function",
      "constant": true
    }
  ],
  "bytecode": "0x608060405234801561000f575f80fd5b506108088061001d5f395ff3fe608060405234801561000f575f80fd5b506004361061004a575f3560e01c8063a79861f11461004e578063a9373e4b1461006a578063d1a486271461009a578063eefd694b146100b6575b5f80fd5b610068600480360381019061006391906105e1565b6100e8565b005b610084600480360381019061007f919061060c565b6102d9565b6040516100919190610664565b60405180910390f35b6100b460048036038101906100af91906105e1565b610369565b005b6100d060048036038101906100cb919061060c565b610528565b6040516100df939291906106a4565b60405180910390f35b5f73ffffffffffffffffffffffffffffffffffffffff168173ffffffffffffffffffffffffffffffffffffffff1603610156576040517f08c379a000000000000000000000000000000000000000000000000000000000815260040161014d90610733565b60405180910390fd5b60405180606001604052808273ffffffffffffffffffffffffffffffffffffffff168152602001428152602001600115158152505f803373ffffffffffffffffffffffffffffffffffffffff1673ffffffffffffffffffffffffffffffffffffffff1681526020019081526020015f205f8373ffffffffffffffffffffffffffffffffffffffff1673ffffffffffffffffffffffffffffffffffffffff1681526020019081526020015f205f820151815f015f6101000a81548173ffffffffffffffffffffffffffffffffffffffff021916908373ffffffffffffffffffffffffffffffffffffffff160217905550602082015181600101556040820151816002015f6101000a81548160ff0219169083151502179055509050508073ffffffffffffffffffffffffffffffffffffffff163373ffffffffffffffffffffffffffffffffffffffff167f76a1ad651bc50df5ed36a8884155c46292a92f3605f168df56223cb72e98d02a426040516102ce9190610751565b60405180910390a350565b5f805f8473ffffffffffffffffffffffffffffffffffffffff1673ffffffffffffffffffffffffffffffffffffffff1681526020019081526020015f205f8373ffffffffffffffffffffffffffffffffffffffff1673ffffffffffffffffffffffffffffffffffffffff1681526020019081526020015f206002015f9054906101000a900460ff16905092915050565b5f803373ffffffffffffffffffffffffffffffffffffffff1673ffffffffffffffffffffffffffffffffffffffff1681526020019081526020015f205f8273ffffffffffffffffffffffffffffffffffffffff1673ffffffffffffffffffffffffffffffffffffffff1681526020019081526020015f206002015f9054906101000a900460ff1661042f576040517f08c379a0000000000000000000000000000000000000000000000000000000008152600401610426906107b4565b60405180910390fd5b5f805f3373ffffffffffffffffffffffffffffffffffffffff1673ffffffffffffffffffffffffffffffffffffffff1681526020019081526020015f205f8373ffffffffffffffffffffffffffffffffffffffff1673ffffffffffffffffffffffffffffffffffffffff1681526020019081526020015f206002015f6101000a81548160ff0219169083151502179055508073ffffffffffffffffffffffffffffffffffffffff163373ffffffffffffffffffffffffffffffffffffffff167fb975ee8b7b7c48fd313db9b5ca976e213d1d7bd3136fc5c926dd5ff00077e47f4260405161051d9190610751565b60405180910390a350565b5f602052815f5260405f20602052805f5260405f205f9150915050805f015f9054906101000a900473ffffffffffffffffffffffffffffffffffffffff1690806001015490806002015f9054906101000a900460ff16905083565b5f80fd5b5f73ffffffffffffffffffffffffffffffffffffffff82169050919050565b5f6105b082610587565b9050919050565b6105c0816105a6565b81146105ca575f80fd5b50565b5f813590506105db816105b7565b92915050565b5f602082840312156105f6576105f5610583565b5b5f610603848285016105cd565b91505092915050565b5f806040838503121561062257610621610583565b5b5f61062f858286016105cd565b9250506020610640858286016105cd565b9150509250929050565b5f8115159050919050565b61065e8161064a565b82525050565b5f6020820190506106775f830184610655565b92915050565b610686816105a6565b82525050565b5f819050919050565b61069e8161068c565b82525050565b5f6060820190506106b75f83018661067d565b6106c46020830185610695565b6106d16040830184610655565b949350505050565b5f82825260208201905092915050565b7f496e76616c696420646f63746f722061646472657373000000000000000000005f82015250565b5f61071d6016836106d9565b9150610728826106e9565b602082019050919050565b5f6020820190508181035f83015261074a81610711565b9050919050565b5f6020820190506107645f830184610695565b92915050565b7f436f6e73656e74206e6f742061637469766500000000000000000000000000005f82015250565b5f61079e6012836106d9565b91506107a98261076a565b602082019050919050565b5f6020820190508181035f8301526107cb81610792565b905091905056fea264697066735822122062016e26015ccf67ad7139f8f901c89dc3449db12c1d44f3d62f80cb2625756464736f6c63430008140033",
  "immutableReferences": {},
  "source": "// SPDX-License-Identifier: MIT\npragma solidity ^0.8.0;\n\ncontract ConsentManager {\n    struct Consent {\n        address doctor;       // Address of the doctor\n        uint256 timestamp;    // Timestamp of when consent was granted\n        bool active;          // Consent status (active/inactive)\n    }\n\n    // Mapping from patient address to their consents\n    mapping(address => mapping(address => Consent)) public patientConsents;\n\n    // Events for logging consent actions\n    event ConsentGranted(address indexed patient, address indexed doctor, uint256 timestamp);\n    event ConsentRevoked(address indexed patient, address indexed doctor, uint256 timestamp);\n\n    /**\n     * @dev Grant consent to a doctor.\n     * @param doctor Address of the doctor to grant consent.\n     */\n    function grantConsent(address doctor) public {\n        require(doctor != address(0), \"Invalid doctor address\");\n\n        // Grant consent\n        patientConsents[msg.sender][doctor] = Consent({\n            doctor: doctor,\n            timestamp: block.timestamp,\n            active: true\n        });\n\n        emit ConsentGranted(msg.sender, doctor, block.timestamp);\n    }\n\n    /**\n     * @dev Revoke consent from a doctor.\n     * @param doctor Address of the doctor to revoke consent.\n     */\n    function revokeConsent(address doctor) public {\n        require(patientConsents[msg.sender][doctor].active, \"Consent not active\");\n\n        // Revoke consent\n        patientConsents[msg.sender][doctor].active = false;\n\n        emit ConsentRevoked(msg.sender, doctor, block.timestamp);\n    }\n\n    /**\n     * @dev Check if a doctor has active consent from a patient.\n     * @param patient Address of the patient.\n     * @param doctor Address of the doctor.\n     * @return Whether the consent is active or not.\n     */\n    function hasConsent(address patient, address doctor) public view returns (bool) {\n        return patientConsents[patient][doctor].active;\n    }\n}",
  "sourcePath": "/Users/ishan/WeCare/blockchain/contracts/ConsentManager.sol",
  "compiler": {
    "name": "solc",
    "version": "0.8.20+commit.a1b79de6.Emscripten.clang"
  },
  "schemaVersion": "3.4.16",
  "updatedAt": "2025-01-28T06:26:11.709Z",
  "networkType": "ethereum",
  "devdoc": {
    "kind": "dev",
    "methods": {
      "grantConsent(address)": {
        "details": "Grant consent to a doctor.",
        "params": {
          "doctor": "Address of the doctor to grant consent."
        }
      },
      "hasConsent(address,address)": {
        "details": "Check if a doctor has active consent from a patient.",
        "params": {
          "doctor": "Address of the doctor.",
          "patient": "Address of the patient."
        },
        "returns": {
          "_0": "Whether the consent is active or not."
        }
      },
      "revokeConsent(address)": {
        "details": "Revoke consent from a doctor.",
        "params": {
          "doctor": "Address of the doctor to revoke consent."
        }
      }
    },
    "version": 1
  },
  "userdoc": {
    "kind": "user",
    "methods": {},
    "version": 1
  }
}