{
  "contractName": "CredentialVerifier",
  "abi": [
    {
      "inputs": [],
      "stateMutability": "nonpayable",
      "type": "constructor"
    },
    {
      "anonymous": false,
      "inputs": [
        {
          "indexed": true,
          "internalType": "address",
          "name": "doctor",
          "type": "address"
        },
        {
          "indexed": false,
          "internalType": "string",
          "name": "name",
          "type": "string"
        },
        {
          "indexed": false,
          "internalType": "string",
          "name": "licenseCID",
          "type": "string"
        }
      ],
      "name": "DoctorRegistered",
      "type": "event"
    },
    {
      "anonymous": false,
      "inputs": [
        {
          "indexed": true,
          "internalType": "address",
          "name": "doctor",
          "type": "address"
        },
        {
          "indexed": false,
          "internalType": "bool",
          "name": "verified",
          "type": "bool"
        }
      ],
      "name": "DoctorVerified",
      "type": "event"
    },
    {
      "inputs": [],
      "name": "admin",
      "outputs": [
        {
          "internalType": "address",
          "name": "",
          "type": "address"
        }
      ],
      "stateMutability": "view",
      "type": "function",
      "constant": true
    },
    {
      "inputs": [
        {
          "internalType": "address",
          "name": "",
          "type": "address"
        }
      ],
      "name": "doctors",
      "outputs": [
        {
          "internalType": "string",
          "name": "name",
          "type": "string"
        },
        {
          "internalType": "string",
          "name": "licenseCID",
          "type": "string"
        },
        {
          "internalType": "bool",
          "name": "verified",
          "type": "bool"
        }
      ],
      "stateMutability": "view",
      "type": "function",
      "constant": true
    },
    {
      "inputs": [
        {
          "internalType": "string",
          "name": "name",
          "type": "string"
        },
        {
          "internalType": "string",
          "name": "licenseCID",
          "type": "string"
        }
      ],
      "name": "registerDoctor",
      "outputs": [],
      "stateMutability": "nonpayable",
      "type": "function"
    },
    {
      "inputs": [
        {
          "internalType": "address",
          "name": "doctor",
          "type": "address"
        },
        {
          "internalType": "bool",
          "name": "verified",
          "type": "bool"
        }
      ],
      "name": "verifyDoctor",
      "outputs": [],
      "stateMutability": "nonpayable",
      "type": "function"
    },
    {
      "inputs": [
        {
          "internalType": "address",
          "name": "doctor",
          "type": "address"
        }
      ],
      "name": "isDoctorVerified",
      "outputs": [
        {
          "internalType": "bool",
          "name": "",
          "type": "bool"
        }
      ],
      "stateMutability": "view",
      "type": "function",
      "constant": true
    }
  ],
  "bytecode": "0x608060405234801561000f575f80fd5b50335f806101000a81548173ffffffffffffffffffffffffffffffffffffffff021916908373ffffffffffffffffffffffffffffffffffffffff160217905550610e748061005c5f395ff3fe608060405234801561000f575f80fd5b5060043610610055575f3560e01c80630b13acdf146100595780631d00507214610089578063833b46bb146100a5578063a9583c22146100c1578063f851a440146100f3575b5f80fd5b610073600480360381019061006e919061067c565b610111565b60405161008091906106c1565b60405180910390f35b6100a3600480360381019061009e9190610704565b610166565b005b6100bf60048036038101906100ba919061087e565b610329565b005b6100db60048036038101906100d6919061067c565b6104b0565b6040516100ea9392919061096e565b60405180910390f35b6100fb6105ee565b60405161010891906109c0565b60405180910390f35b5f60015f8373ffffffffffffffffffffffffffffffffffffffff1673ffffffffffffffffffffffffffffffffffffffff1681526020019081526020015f206002015f9054906101000a900460ff169050919050565b5f8054906101000a900473ffffffffffffffffffffffffffffffffffffffff1673ffffffffffffffffffffffffffffffffffffffff163373ffffffffffffffffffffffffffffffffffffffff16146101f3576040517f08c379a00000000000000000000000000000000000000000000000000000000081526004016101ea90610a49565b60405180910390fd5b5f60015f8473ffffffffffffffffffffffffffffffffffffffff1673ffffffffffffffffffffffffffffffffffffffff1681526020019081526020015f205f01805461023e90610a94565b905011610280576040517f08c379a000000000000000000000000000000000000000000000000000000000815260040161027790610b0e565b60405180910390fd5b8060015f8473ffffffffffffffffffffffffffffffffffffffff1673ffffffffffffffffffffffffffffffffffffffff1681526020019081526020015f206002015f6101000a81548160ff0219169083151502179055508173ffffffffffffffffffffffffffffffffffffffff167f4aeb09b37943604dee1018732e45e286e36e7613145ba310a7774266101b4deb8260405161031d91906106c1565b60405180910390a25050565b5f60015f3373ffffffffffffffffffffffffffffffffffffffff1673ffffffffffffffffffffffffffffffffffffffff1681526020019081526020015f205f01805461037490610a94565b9050146103b6576040517f08c379a00000000000000000000000000000000000000000000000000000000081526004016103ad90610b76565b60405180910390fd5b60405180606001604052808381526020018281526020015f151581525060015f3373ffffffffffffffffffffffffffffffffffffffff1673ffffffffffffffffffffffffffffffffffffffff1681526020019081526020015f205f820151815f0190816104239190610d3a565b5060208201518160010190816104399190610d3a565b506040820151816002015f6101000a81548160ff0219169083151502179055509050503373ffffffffffffffffffffffffffffffffffffffff167fbc3a5b2aeb1bc52e3d56d3fd3423dd66cea5ecff8ae1f3bd0d75a0e608da7b8583836040516104a4929190610e09565b60405180910390a25050565b6001602052805f5260405f205f91509050805f0180546104cf90610a94565b80601f01602080910402602001604051908101604052809291908181526020018280546104fb90610a94565b80156105465780601f1061051d57610100808354040283529160200191610546565b820191905f5260205f20905b81548152906001019060200180831161052957829003601f168201915b50505050509080600101805461055b90610a94565b80601f016020809104026020016040519081016040528092919081815260200182805461058790610a94565b80156105d25780601f106105a9576101008083540402835291602001916105d2565b820191905f5260205f20905b8154815290600101906020018083116105b557829003601f168201915b505050505090806002015f9054906101000a900460ff16905083565b5f8054906101000a900473ffffffffffffffffffffffffffffffffffffffff1681565b5f604051905090565b5f80fd5b5f80fd5b5f73ffffffffffffffffffffffffffffffffffffffff82169050919050565b5f61064b82610622565b9050919050565b61065b81610641565b8114610665575f80fd5b50565b5f8135905061067681610652565b92915050565b5f602082840312156106915761069061061a565b5b5f61069e84828501610668565b91505092915050565b5f8115159050919050565b6106bb816106a7565b82525050565b5f6020820190506106d45f8301846106b2565b92915050565b6106e3816106a7565b81146106ed575f80fd5b50565b5f813590506106fe816106da565b92915050565b5f806040838503121561071a5761071961061a565b5b5f61072785828601610668565b9250506020610738858286016106f0565b9150509250929050565b5f80fd5b5f80fd5b5f601f19601f8301169050919050565b7f4e487b71000000000000000000000000000000000000000000000000000000005f52604160045260245ffd5b6107908261074a565b810181811067ffffffffffffffff821117156107af576107ae61075a565b5b80604052505050565b5f6107c1610611565b90506107cd8282610787565b919050565b5f67ffffffffffffffff8211156107ec576107eb61075a565b5b6107f58261074a565b9050602081019050919050565b828183375f83830152505050565b5f61082261081d846107d2565b6107b8565b90508281526020810184848401111561083e5761083d610746565b5b610849848285610802565b509392505050565b5f82601f83011261086557610864610742565b5b8135610875848260208601610810565b91505092915050565b5f80604083850312156108945761089361061a565b5b5f83013567ffffffffffffffff8111156108b1576108b061061e565b5b6108bd85828601610851565b925050602083013567ffffffffffffffff8111156108de576108dd61061e565b5b6108ea85828601610851565b9150509250929050565b5f81519050919050565b5f82825260208201905092915050565b5f5b8381101561092b578082015181840152602081019050610910565b5f8484015250505050565b5f610940826108f4565b61094a81856108fe565b935061095a81856020860161090e565b6109638161074a565b840191505092915050565b5f6060820190508181035f8301526109868186610936565b9050818103602083015261099a8185610936565b90506109a960408301846106b2565b949350505050565b6109ba81610641565b82525050565b5f6020820190506109d35f8301846109b1565b92915050565b7f4f6e6c792061646d696e2063616e20706572666f726d207468697320616374695f8201527f6f6e000000000000000000000000000000000000000000000000000000000000602082015250565b5f610a336022836108fe565b9150610a3e826109d9565b604082019050919050565b5f6020820190508181035f830152610a6081610a27565b9050919050565b7f4e487b71000000000000000000000000000000000000000000000000000000005f52602260045260245ffd5b5f6002820490506001821680610aab57607f821691505b602082108103610abe57610abd610a67565b5b50919050565b7f446f63746f72206e6f74207265676973746572656400000000000000000000005f82015250565b5f610af86015836108fe565b9150610b0382610ac4565b602082019050919050565b5f6020820190508181035f830152610b2581610aec565b9050919050565b7f446f63746f7220616c72656164792072656769737465726564000000000000005f82015250565b5f610b606019836108fe565b9150610b6b82610b2c565b602082019050919050565b5f6020820190508181035f830152610b8d81610b54565b9050919050565b5f819050815f5260205f209050919050565b5f6020601f8301049050919050565b5f82821b905092915050565b5f60088302610bf07fffffffffffffffffffffffffffffffffffffffffffffffffffffffffffffffff82610bb5565b610bfa8683610bb5565b95508019841693508086168417925050509392505050565b5f819050919050565b5f819050919050565b5f610c3e610c39610c3484610c12565b610c1b565b610c12565b9050919050565b5f819050919050565b610c5783610c24565b610c6b610c6382610c45565b848454610bc1565b825550505050565b5f90565b610c7f610c73565b610c8a818484610c4e565b505050565b5b81811015610cad57610ca25f82610c77565b600181019050610c90565b5050565b601f821115610cf257610cc381610b94565b610ccc84610ba6565b81016020851015610cdb578190505b610cef610ce785610ba6565b830182610c8f565b50505b505050565b5f82821c905092915050565b5f610d125f1984600802610cf7565b1980831691505092915050565b5f610d2a8383610d03565b9150826002028217905092915050565b610d43826108f4565b67ffffffffffffffff811115610d5c57610d5b61075a565b5b610d668254610a94565b610d71828285610cb1565b5f60209050601f831160018114610da2575f8415610d90578287015190505b610d9a8582610d1f565b865550610e01565b601f198416610db086610b94565b5f5b82811015610dd757848901518255600182019150602085019450602081019050610db2565b86831015610df45784890151610df0601f891682610d03565b8355505b6001600288020188555050505b505050505050565b5f6040820190508181035f830152610e218185610936565b90508181036020830152610e358184610936565b9050939250505056fea264697066735822122046747e30676da5074b24808607824b8f9676387a3b2338ddcc62daee8231dffe64736f6c63430008140033",
  "immutableReferences": {},
  "source": "// SPDX-License-Identifier: MIT\npragma solidity ^0.8.0;\n\ncontract CredentialVerifier {\n    struct Doctor {\n        string name;           // Name of the doctor\n        string licenseCID;     // IPFS CID for license or credentials\n        bool verified;         // Verification status\n    }\n\n    address public admin;       // Address of the admin\n    mapping(address => Doctor) public doctors; // Mapping of doctor addresses to their data\n\n    event DoctorRegistered(address indexed doctor, string name, string licenseCID);\n    event DoctorVerified(address indexed doctor, bool verified);\n\n    modifier onlyAdmin() {\n        require(msg.sender == admin, \"Only admin can perform this action\");\n        _;\n    }\n\n    constructor() {\n        admin = msg.sender; // Set contract deployer as admin\n    }\n\n    /**\n     * @dev Register a doctor.\n     * @param name Name of the doctor.\n     * @param licenseCID IPFS CID of the doctor's credentials.\n     */\n    function registerDoctor(string memory name, string memory licenseCID) public {\n        require(bytes(doctors[msg.sender].name).length == 0, \"Doctor already registered\");\n\n        doctors[msg.sender] = Doctor({\n            name: name,\n            licenseCID: licenseCID,\n            verified: false\n        });\n\n        emit DoctorRegistered(msg.sender, name, licenseCID);\n    }\n\n    /**\n     * @dev Verify a doctor's credentials.\n     * @param doctor Address of the doctor to verify.\n     * @param verified Verification status (true/false).\n     */\n    function verifyDoctor(address doctor, bool verified) public onlyAdmin {\n        require(bytes(doctors[doctor].name).length > 0, \"Doctor not registered\");\n\n        doctors[doctor].verified = verified;\n\n        emit DoctorVerified(doctor, verified);\n    }\n\n    /**\n     * @dev Check if a doctor is verified.\n     * @param doctor Address of the doctor.\n     * @return Whether the doctor is verified.\n     */\n    function isDoctorVerified(address doctor) public view returns (bool) {\n        return doctors[doctor].verified;\n    }\n}",
  "sourcePath": "/Users/ishan/WeCare/blockchain/contracts/CredentialVerifier.sol",
  "compiler": {
    "name": "solc",
    "version": "0.8.20+commit.a1b79de6.Emscripten.clang"
  },
  "schemaVersion": "3.4.16",
  "updatedAt": "2025-01-28T06:26:11.715Z",
  "networkType": "ethereum",
  "devdoc": {
    "kind": "dev",
    "methods": {
      "isDoctorVerified(address)": {
        "details": "Check if a doctor is verified.",
        "params": {
          "doctor": "Address of the doctor."
        },
        "returns": {
          "_0": "Whether the doctor is verified."
        }
      },
      "registerDoctor(string,string)": {
        "details": "Register a doctor.",
        "params": {
          "licenseCID": "IPFS CID of the doctor's credentials.",
          "name": "Name of the doctor."
        }
      },
      "verifyDoctor(address,bool)": {
        "details": "Verify a doctor's credentials.",
        "params": {
          "doctor": "Address of the doctor to verify.",
          "verified": "Verification status (true/false)."
        }
      }
    },
    "version": 1
  },
  "userdoc": {
    "kind": "user",
    "methods": {},
    "version": 1
  }
}