{
  "contractName": "DoctorRegistry",
  "abi": [
    {
      "inputs": [],
      "stateMutability": "nonpayable",
      "type": "constructor"
    },
    {
      "anonymous": false,
      "inputs": [
        {
          "indexed": true,
          "internalType": "address",
          "name": "doctorAddress",
          "type": "address"
        },
        {
          "indexed": false,
          "internalType": "string",
          "name": "name",
          "type": "string"
        },
        {
          "indexed": false,
          "internalType": "string",
          "name": "specialization",
          "type": "string"
        }
      ],
      "name": "DoctorRegistered",
      "type": "event"
    },
    {
      "anonymous": false,
      "inputs": [
        {
          "indexed": true,
          "internalType": "address",
          "name": "doctorAddress",
          "type": "address"
        },
        {
          "indexed": false,
          "internalType": "bool",
          "name": "status",
          "type": "bool"
        }
      ],
      "name": "DoctorVerified",
      "type": "event"
    },
    {
      "inputs": [],
      "name": "admin",
      "outputs": [
        {
          "internalType": "address",
          "name": "",
          "type": "address"
        }
      ],
      "stateMutability": "view",
      "type": "function",
      "constant": true
    },
    {
      "inputs": [
        {
          "internalType": "uint256",
          "name": "",
          "type": "uint256"
        }
      ],
      "name": "doctorList",
      "outputs": [
        {
          "internalType": "address",
          "name": "",
          "type": "address"
        }
      ],
      "stateMutability": "view",
      "type": "function",
      "constant": true
    },
    {
      "inputs": [
        {
          "internalType": "address",
          "name": "",
          "type": "address"
        }
      ],
      "name": "doctors",
      "outputs": [
        {
          "internalType": "string",
          "name": "name",
          "type": "string"
        },
        {
          "internalType": "string",
          "name": "specialization",
          "type": "string"
        },
        {
          "internalType": "string",
          "name": "licenseNumber",
          "type": "string"
        },
        {
          "internalType": "address",
          "name": "walletAddress",
          "type": "address"
        },
        {
          "internalType": "bool",
          "name": "verified",
          "type": "bool"
        }
      ],
      "stateMutability": "view",
      "type": "function",
      "constant": true
    },
    {
      "inputs": [
        {
          "internalType": "string",
          "name": "_name",
          "type": "string"
        },
        {
          "internalType": "string",
          "name": "_specialization",
          "type": "string"
        },
        {
          "internalType": "string",
          "name": "_licenseNumber",
          "type": "string"
        }
      ],
      "name": "registerDoctor",
      "outputs": [],
      "stateMutability": "nonpayable",
      "type": "function"
    },
    {
      "inputs": [
        {
          "internalType": "address",
          "name": "_doctorAddress",
          "type": "address"
        }
      ],
      "name": "verifyDoctor",
      "outputs": [],
      "stateMutability": "nonpayable",
      "type": "function"
    },
    {
      "inputs": [
        {
          "internalType": "address",
          "name": "_doctorAddress",
          "type": "address"
        }
      ],
      "name": "getDoctor",
      "outputs": [
        {
          "internalType": "string",
          "name": "",
          "type": "string"
        },
        {
          "internalType": "string",
          "name": "",
          "type": "string"
        },
        {
          "internalType": "string",
          "name": "",
          "type": "string"
        },
        {
          "internalType": "bool",
          "name": "",
          "type": "bool"
        }
      ],
      "stateMutability": "view",
      "type": "function",
      "constant": true
    },
    {
      "inputs": [],
      "name": "getAllDoctors",
      "outputs": [
        {
          "internalType": "address[]",
          "name": "",
          "type": "address[]"
        }
      ],
      "stateMutability": "view",
      "type": "function",
      "constant": true
    }
  ],
  "bytecode": "0x608060405234801561000f575f80fd5b503360025f6101000a81548173ffffffffffffffffffffffffffffffffffffffff021916908373ffffffffffffffffffffffffffffffffffffffff1602179055506116168061005d5f395ff3fe608060405234801561000f575f80fd5b506004361061007b575f3560e01c8063a9583c2211610059578063a9583c22146100fe578063d80cb05c14610132578063f0d950901461014e578063f851a4401461016c5761007b565b8063127ca4b41461007f5780632f04e064146100af57806350c7a912146100e2575b5f80fd5b61009960048036038101906100949190610cb0565b61018a565b6040516100a69190610d1a565b60405180910390f35b6100c960048036038101906100c49190610d5d565b6101c5565b6040516100d99493929190610e2c565b60405180910390f35b6100fc60048036038101906100f79190610fb0565b610523565b005b61011860048036038101906101139190610d5d565b6107c8565b604051610129959493929190611054565b60405180910390f35b61014c60048036038101906101479190610d5d565b6109b7565b005b610156610bbc565b6040516101639190611171565b60405180910390f35b610174610c47565b6040516101819190610d1a565b60405180910390f35b60018181548110610199575f80fd5b905f5260205f20015f915054906101000a900473ffffffffffffffffffffffffffffffffffffffff1681565b60608060605f8073ffffffffffffffffffffffffffffffffffffffff165f808773ffffffffffffffffffffffffffffffffffffffff1673ffffffffffffffffffffffffffffffffffffffff1681526020019081526020015f206003015f9054906101000a900473ffffffffffffffffffffffffffffffffffffffff1673ffffffffffffffffffffffffffffffffffffffff1603610297576040517f08c379a000000000000000000000000000000000000000000000000000000000815260040161028e906111db565b60405180910390fd5b5f805f8773ffffffffffffffffffffffffffffffffffffffff1673ffffffffffffffffffffffffffffffffffffffff1681526020019081526020015f206040518060a00160405290815f820180546102ee90611226565b80601f016020809104026020016040519081016040528092919081815260200182805461031a90611226565b80156103655780601f1061033c57610100808354040283529160200191610365565b820191905f5260205f20905b81548152906001019060200180831161034857829003601f168201915b5050505050815260200160018201805461037e90611226565b80601f01602080910402602001604051908101604052809291908181526020018280546103aa90611226565b80156103f55780601f106103cc576101008083540402835291602001916103f5565b820191905f5260205f20905b8154815290600101906020018083116103d857829003601f168201915b5050505050815260200160028201805461040e90611226565b80601f016020809104026020016040519081016040528092919081815260200182805461043a90611226565b80156104855780601f1061045c57610100808354040283529160200191610485565b820191905f5260205f20905b81548152906001019060200180831161046857829003601f168201915b50505050508152602001600382015f9054906101000a900473ffffffffffffffffffffffffffffffffffffffff1673ffffffffffffffffffffffffffffffffffffffff1673ffffffffffffffffffffffffffffffffffffffff1681526020016003820160149054906101000a900460ff1615151515815250509050805f01518160200151826040015183608001519450945094509450509193509193565b5f73ffffffffffffffffffffffffffffffffffffffff165f803373ffffffffffffffffffffffffffffffffffffffff1673ffffffffffffffffffffffffffffffffffffffff1681526020019081526020015f206003015f9054906101000a900473ffffffffffffffffffffffffffffffffffffffff1673ffffffffffffffffffffffffffffffffffffffff16146105ef576040517f08c379a00000000000000000000000000000000000000000000000000000000081526004016105e6906112a0565b60405180910390fd5b6040518060a001604052808481526020018381526020018281526020013373ffffffffffffffffffffffffffffffffffffffff1681526020015f15158152505f803373ffffffffffffffffffffffffffffffffffffffff1673ffffffffffffffffffffffffffffffffffffffff1681526020019081526020015f205f820151815f01908161067d919061145b565b506020820151816001019081610693919061145b565b5060408201518160020190816106a9919061145b565b506060820151816003015f6101000a81548173ffffffffffffffffffffffffffffffffffffffff021916908373ffffffffffffffffffffffffffffffffffffffff16021790555060808201518160030160146101000a81548160ff021916908315150217905550905050600133908060018154018082558091505060019003905f5260205f20015f9091909190916101000a81548173ffffffffffffffffffffffffffffffffffffffff021916908373ffffffffffffffffffffffffffffffffffffffff1602179055503373ffffffffffffffffffffffffffffffffffffffff167fbc3a5b2aeb1bc52e3d56d3fd3423dd66cea5ecff8ae1f3bd0d75a0e608da7b8584846040516107bb92919061152a565b60405180910390a2505050565b5f602052805f5260405f205f91509050805f0180546107e690611226565b80601f016020809104026020016040519081016040528092919081815260200182805461081290611226565b801561085d5780601f106108345761010080835404028352916020019161085d565b820191905f5260205f20905b81548152906001019060200180831161084057829003601f168201915b50505050509080600101805461087290611226565b80601f016020809104026020016040519081016040528092919081815260200182805461089e90611226565b80156108e95780601f106108c0576101008083540402835291602001916108e9565b820191905f5260205f20905b8154815290600101906020018083116108cc57829003601f168201915b5050505050908060020180546108fe90611226565b80601f016020809104026020016040519081016040528092919081815260200182805461092a90611226565b80156109755780601f1061094c57610100808354040283529160200191610975565b820191905f5260205f20905b81548152906001019060200180831161095857829003601f168201915b505050505090806003015f9054906101000a900473ffffffffffffffffffffffffffffffffffffffff16908060030160149054906101000a900460ff16905085565b60025f9054906101000a900473ffffffffffffffffffffffffffffffffffffffff1673ffffffffffffffffffffffffffffffffffffffff163373ffffffffffffffffffffffffffffffffffffffff1614610a46576040517f08c379a0000000000000000000000000000000000000000000000000000000008152600401610a3d906115a9565b60405180910390fd5b5f73ffffffffffffffffffffffffffffffffffffffff165f808373ffffffffffffffffffffffffffffffffffffffff1673ffffffffffffffffffffffffffffffffffffffff1681526020019081526020015f206003015f9054906101000a900473ffffffffffffffffffffffffffffffffffffffff1673ffffffffffffffffffffffffffffffffffffffff1603610b12576040517f08c379a0000000000000000000000000000000000000000000000000000000008152600401610b09906111db565b60405180910390fd5b60015f808373ffffffffffffffffffffffffffffffffffffffff1673ffffffffffffffffffffffffffffffffffffffff1681526020019081526020015f2060030160146101000a81548160ff0219169083151502179055508073ffffffffffffffffffffffffffffffffffffffff167f4aeb09b37943604dee1018732e45e286e36e7613145ba310a7774266101b4deb6001604051610bb191906115c7565b60405180910390a250565b60606001805480602002602001604051908101604052809291908181526020018280548015610c3d57602002820191905f5260205f20905b815f9054906101000a900473ffffffffffffffffffffffffffffffffffffffff1673ffffffffffffffffffffffffffffffffffffffff1681526020019060010190808311610bf4575b5050505050905090565b60025f9054906101000a900473ffffffffffffffffffffffffffffffffffffffff1681565b5f604051905090565b5f80fd5b5f80fd5b5f819050919050565b610c8f81610c7d565b8114610c99575f80fd5b50565b5f81359050610caa81610c86565b92915050565b5f60208284031215610cc557610cc4610c75565b5b5f610cd284828501610c9c565b91505092915050565b5f73ffffffffffffffffffffffffffffffffffffffff82169050919050565b5f610d0482610cdb565b9050919050565b610d1481610cfa565b82525050565b5f602082019050610d2d5f830184610d0b565b92915050565b610d3c81610cfa565b8114610d46575f80fd5b50565b5f81359050610d5781610d33565b92915050565b5f60208284031215610d7257610d71610c75565b5b5f610d7f84828501610d49565b91505092915050565b5f81519050919050565b5f82825260208201905092915050565b5f5b83811015610dbf578082015181840152602081019050610da4565b5f8484015250505050565b5f601f19601f8301169050919050565b5f610de482610d88565b610dee8185610d92565b9350610dfe818560208601610da2565b610e0781610dca565b840191505092915050565b5f8115159050919050565b610e2681610e12565b82525050565b5f6080820190508181035f830152610e448187610dda565b90508181036020830152610e588186610dda565b90508181036040830152610e6c8185610dda565b9050610e7b6060830184610e1d565b95945050505050565b5f80fd5b5f80fd5b7f4e487b71000000000000000000000000000000000000000000000000000000005f52604160045260245ffd5b610ec282610dca565b810181811067ffffffffffffffff82111715610ee157610ee0610e8c565b5b80604052505050565b5f610ef3610c6c565b9050610eff8282610eb9565b919050565b5f67ffffffffffffffff821115610f1e57610f1d610e8c565b5b610f2782610dca565b9050602081019050919050565b828183375f83830152505050565b5f610f54610f4f84610f04565b610eea565b905082815260208101848484011115610f7057610f6f610e88565b5b610f7b848285610f34565b509392505050565b5f82601f830112610f9757610f96610e84565b5b8135610fa7848260208601610f42565b91505092915050565b5f805f60608486031215610fc757610fc6610c75565b5b5f84013567ffffffffffffffff811115610fe457610fe3610c79565b5b610ff086828701610f83565b935050602084013567ffffffffffffffff81111561101157611010610c79565b5b61101d86828701610f83565b925050604084013567ffffffffffffffff81111561103e5761103d610c79565b5b61104a86828701610f83565b9150509250925092565b5f60a0820190508181035f83015261106c8188610dda565b905081810360208301526110808187610dda565b905081810360408301526110948186610dda565b90506110a36060830185610d0b565b6110b06080830184610e1d565b9695505050505050565b5f81519050919050565b5f82825260208201905092915050565b5f819050602082019050919050565b6110ec81610cfa565b82525050565b5f6110fd83836110e3565b60208301905092915050565b5f602082019050919050565b5f61111f826110ba565b61112981856110c4565b9350611134836110d4565b805f5b8381101561116457815161114b88826110f2565b975061115683611109565b925050600181019050611137565b5085935050505092915050565b5f6020820190508181035f8301526111898184611115565b905092915050565b7f446f63746f72206e6f7420666f756e64000000000000000000000000000000005f82015250565b5f6111c5601083610d92565b91506111d082611191565b602082019050919050565b5f6020820190508181035f8301526111f2816111b9565b9050919050565b7f4e487b71000000000000000000000000000000000000000000000000000000005f52602260045260245ffd5b5f600282049050600182168061123d57607f821691505b6020821081036112505761124f6111f9565b5b50919050565b7f446f63746f7220616c72656164792072656769737465726564000000000000005f82015250565b5f61128a601983610d92565b915061129582611256565b602082019050919050565b5f6020820190508181035f8301526112b78161127e565b9050919050565b5f819050815f5260205f209050919050565b5f6020601f8301049050919050565b5f82821b905092915050565b5f6008830261131a7fffffffffffffffffffffffffffffffffffffffffffffffffffffffffffffffff826112df565b61132486836112df565b95508019841693508086168417925050509392505050565b5f819050919050565b5f61135f61135a61135584610c7d565b61133c565b610c7d565b9050919050565b5f819050919050565b61137883611345565b61138c61138482611366565b8484546112eb565b825550505050565b5f90565b6113a0611394565b6113ab81848461136f565b505050565b5b818110156113ce576113c35f82611398565b6001810190506113b1565b5050565b601f821115611413576113e4816112be565b6113ed846112d0565b810160208510156113fc578190505b611410611408856112d0565b8301826113b0565b50505b505050565b5f82821c905092915050565b5f6114335f1984600802611418565b1980831691505092915050565b5f61144b8383611424565b9150826002028217905092915050565b61146482610d88565b67ffffffffffffffff81111561147d5761147c610e8c565b5b6114878254611226565b6114928282856113d2565b5f60209050601f8311600181146114c3575f84156114b1578287015190505b6114bb8582611440565b865550611522565b601f1984166114d1866112be565b5f5b828110156114f8578489015182556001820191506020850194506020810190506114d3565b868310156115155784890151611511601f891682611424565b8355505b6001600288020188555050505b505050505050565b5f6040820190508181035f8301526115428185610dda565b905081810360208301526115568184610dda565b90509392505050565b7f4f6e6c792061646d696e2063616e2076657269667920646f63746f72730000005f82015250565b5f611593601d83610d92565b915061159e8261155f565b602082019050919050565b5f6020820190508181035f8301526115c081611587565b9050919050565b5f6020820190506115da5f830184610e1d565b9291505056fea2646970667358221220ce9e2ad33cdae08cbd224907f62da613bf16d12187b8712b717d57f6569199fe64736f6c63430008140033",
  "immutableReferences": {},
  "source": "// SPDX-License-Identifier: MIT\npragma solidity ^0.8.20;\n\ncontract DoctorRegistry {\n    struct Doctor {\n        string name;\n        string specialization;\n        string licenseNumber;\n        address walletAddress;\n        bool verified;\n    }\n\n    mapping(address => Doctor) public doctors;\n    address[] public doctorList;\n    address public admin;\n\n    event DoctorRegistered(address indexed doctorAddress, string name, string specialization);\n    event DoctorVerified(address indexed doctorAddress, bool status);\n\n    modifier onlyAdmin() {\n        require(msg.sender == admin, \"Only admin can verify doctors\");\n        _;\n    }\n\n    constructor() {\n        admin = msg.sender;\n    }\n\n    function registerDoctor(\n        string memory _name,\n        string memory _specialization,\n        string memory _licenseNumber\n    ) public {\n        require(doctors[msg.sender].walletAddress == address(0), \"Doctor already registered\");\n        \n        doctors[msg.sender] = Doctor({\n            name: _name,\n            specialization: _specialization,\n            licenseNumber: _licenseNumber,\n            walletAddress: msg.sender,\n            verified: false\n        });\n\n        doctorList.push(msg.sender);\n        emit DoctorRegistered(msg.sender, _name, _specialization);\n    }\n\n    function verifyDoctor(address _doctorAddress) public onlyAdmin {\n        require(doctors[_doctorAddress].walletAddress != address(0), \"Doctor not found\");\n        \n        doctors[_doctorAddress].verified = true;\n        emit DoctorVerified(_doctorAddress, true);\n    }\n\n    function getDoctor(address _doctorAddress) public view returns (string memory, string memory, string memory, bool) {\n        require(doctors[_doctorAddress].walletAddress != address(0), \"Doctor not found\");\n\n        Doctor memory doc = doctors[_doctorAddress];\n        return (doc.name, doc.specialization, doc.licenseNumber, doc.verified);\n    }\n\n    function getAllDoctors() public view returns (address[] memory) {\n        return doctorList;\n    }\n}",
  "sourcePath": "/Users/ishan/WeCare/blockchain/contracts/DoctorRegistry.sol",
  "compiler": {
    "name": "solc",
    "version": "0.8.20+commit.a1b79de6.Emscripten.clang"
  },
  "schemaVersion": "3.4.16",
  "updatedAt": "2025-02-15T16:29:04.235Z",
  "networkType": "ethereum",
  "devdoc": {
    "kind": "dev",
    "methods": {},
    "version": 1
  },
  "userdoc": {
    "kind": "user",
    "methods": {},
    "version": 1
  }
}