{
  "contractName": "PatientRecords",
  "abi": [
    {
      "anonymous": false,
      "inputs": [
        {
          "indexed": true,
          "internalType": "address",
          "name": "patient",
          "type": "address"
        },
        {
          "indexed": false,
          "internalType": "string",
          "name": "ipfsHash",
          "type": "string"
        },
        {
          "indexed": false,
          "internalType": "address",
          "name": "addedBy",
          "type": "address"
        },
        {
          "indexed": false,
          "internalType": "uint256",
          "name": "timestamp",
          "type": "uint256"
        }
      ],
      "name": "RecordAdded",
      "type": "event"
    },
    {
      "inputs": [
        {
          "internalType": "address",
          "name": "_patient",
          "type": "address"
        },
        {
          "internalType": "string",
          "name": "_ipfsHash",
          "type": "string"
        }
      ],
      "name": "addRecord",
      "outputs": [],
      "stateMutability": "nonpayable",
      "type": "function"
    },
    {
      "inputs": [
        {
          "internalType": "address",
          "name": "_patient",
          "type": "address"
        }
      ],
      "name": "getRecords",
      "outputs": [
        {
          "components": [
            {
              "internalType": "string",
              "name": "ipfsHash",
              "type": "string"
            },
            {
              "internalType": "address",
              "name": "addedBy",
              "type": "address"
            },
            {
              "internalType": "uint256",
              "name": "timestamp",
              "type": "uint256"
            }
          ],
          "internalType": "struct PatientRecords.Record[]",
          "name": "",
          "type": "tuple[]"
        }
      ],
      "stateMutability": "view",
      "type": "function"
    }
  ],
  "bytecode": "0x608060405234801561000f575f80fd5b50610aef8061001d5f395ff3fe608060405234801561000f575f80fd5b5060043610610034575f3560e01c806366858ec814610038578063a0076e8414610054575b5f80fd5b610052600480360381019061004d9190610500565b610084565b005b61006e6004803603810190610069919061055a565b6101d3565b60405161007b919061072e565b60405180910390f35b5f808373ffffffffffffffffffffffffffffffffffffffff1673ffffffffffffffffffffffffffffffffffffffff1681526020019081526020015f2060405180606001604052808381526020013373ffffffffffffffffffffffffffffffffffffffff16815260200142815250908060018154018082558091505060019003905f5260205f2090600302015f909190919091505f820151815f01908161012a9190610948565b506020820151816001015f6101000a81548173ffffffffffffffffffffffffffffffffffffffff021916908373ffffffffffffffffffffffffffffffffffffffff1602179055506040820151816002015550508173ffffffffffffffffffffffffffffffffffffffff167f6c6b2c1c4ceb9a4eecc641ca6c44571028b04ab815d0268b3b184af15e5e59d68233426040516101c793929190610a7d565b60405180910390a25050565b60605f808373ffffffffffffffffffffffffffffffffffffffff1673ffffffffffffffffffffffffffffffffffffffff1681526020019081526020015f20805480602002602001604051908101604052809291908181526020015f905b8282101561034e578382905f5260205f2090600302016040518060600160405290815f820180546102609061077b565b80601f016020809104026020016040519081016040528092919081815260200182805461028c9061077b565b80156102d75780601f106102ae576101008083540402835291602001916102d7565b820191905f5260205f20905b8154815290600101906020018083116102ba57829003601f168201915b50505050508152602001600182015f9054906101000a900473ffffffffffffffffffffffffffffffffffffffff1673ffffffffffffffffffffffffffffffffffffffff1673ffffffffffffffffffffffffffffffffffffffff16815260200160028201548152505081526020019060010190610230565b505050509050919050565b5f604051905090565b5f80fd5b5f80fd5b5f73ffffffffffffffffffffffffffffffffffffffff82169050919050565b5f6103938261036a565b9050919050565b6103a381610389565b81146103ad575f80fd5b50565b5f813590506103be8161039a565b92915050565b5f80fd5b5f80fd5b5f601f19601f8301169050919050565b7f4e487b71000000000000000000000000000000000000000000000000000000005f52604160045260245ffd5b610412826103cc565b810181811067ffffffffffffffff82111715610431576104306103dc565b5b80604052505050565b5f610443610359565b905061044f8282610409565b919050565b5f67ffffffffffffffff82111561046e5761046d6103dc565b5b610477826103cc565b9050602081019050919050565b828183375f83830152505050565b5f6104a461049f84610454565b61043a565b9050828152602081018484840111156104c0576104bf6103c8565b5b6104cb848285610484565b509392505050565b5f82601f8301126104e7576104e66103c4565b5b81356104f7848260208601610492565b91505092915050565b5f806040838503121561051657610515610362565b5b5f610523858286016103b0565b925050602083013567ffffffffffffffff81111561054457610543610366565b5b610550858286016104d3565b9150509250929050565b5f6020828403121561056f5761056e610362565b5b5f61057c848285016103b0565b91505092915050565b5f81519050919050565b5f82825260208201905092915050565b5f819050602082019050919050565b5f81519050919050565b5f82825260208201905092915050565b5f5b838110156105e55780820151818401526020810190506105ca565b5f8484015250505050565b5f6105fa826105ae565b61060481856105b8565b93506106148185602086016105c8565b61061d816103cc565b840191505092915050565b61063181610389565b82525050565b5f819050919050565b61064981610637565b82525050565b5f606083015f8301518482035f86015261066982826105f0565b915050602083015161067e6020860182610628565b5060408301516106916040860182610640565b508091505092915050565b5f6106a7838361064f565b905092915050565b5f602082019050919050565b5f6106c582610585565b6106cf818561058f565b9350836020820285016106e18561059f565b805f5b8581101561071c57848403895281516106fd858261069c565b9450610708836106af565b925060208a019950506001810190506106e4565b50829750879550505050505092915050565b5f6020820190508181035f83015261074681846106bb565b905092915050565b7f4e487b71000000000000000000000000000000000000000000000000000000005f52602260045260245ffd5b5f600282049050600182168061079257607f821691505b6020821081036107a5576107a461074e565b5b50919050565b5f819050815f5260205f209050919050565b5f6020601f8301049050919050565b5f82821b905092915050565b5f600883026108077fffffffffffffffffffffffffffffffffffffffffffffffffffffffffffffffff826107cc565b61081186836107cc565b95508019841693508086168417925050509392505050565b5f819050919050565b5f61084c61084761084284610637565b610829565b610637565b9050919050565b5f819050919050565b61086583610832565b61087961087182610853565b8484546107d8565b825550505050565b5f90565b61088d610881565b61089881848461085c565b505050565b5b818110156108bb576108b05f82610885565b60018101905061089e565b5050565b601f821115610900576108d1816107ab565b6108da846107bd565b810160208510156108e9578190505b6108fd6108f5856107bd565b83018261089d565b50505b505050565b5f82821c905092915050565b5f6109205f1984600802610905565b1980831691505092915050565b5f6109388383610911565b9150826002028217905092915050565b610951826105ae565b67ffffffffffffffff81111561096a576109696103dc565b5b610974825461077b565b61097f8282856108bf565b5f60209050601f8311600181146109b0575f841561099e578287015190505b6109a8858261092d565b865550610a0f565b601f1984166109be866107ab565b5f5b828110156109e5578489015182556001820191506020850194506020810190506109c0565b86831015610a0257848901516109fe601f891682610911565b8355505b6001600288020188555050505b505050505050565b5f82825260208201905092915050565b5f610a31826105ae565b610a3b8185610a17565b9350610a4b8185602086016105c8565b610a54816103cc565b840191505092915050565b610a6881610389565b82525050565b610a7781610637565b82525050565b5f6060820190508181035f830152610a958186610a27565b9050610aa46020830185610a5f565b610ab16040830184610a6e565b94935050505056fea26469706673582212205b1b9decf28d8c0f8aad5f06ee3e62345ede0aadd131c6572bd140d1bdd80baa64736f6c63430008140033",
  "immutableReferences": {},
  "source": "// SPDX-License-Identifier: MIT\npragma solidity ^0.8.20;\n\ncontract PatientRecords {\n    struct Record {\n        string ipfsHash;\n        address addedBy;\n        uint256 timestamp;\n    }\n\n    mapping(address => Record[]) private patientRecords;\n\n    event RecordAdded(address indexed patient, string ipfsHash, address addedBy, uint256 timestamp);\n\n    function addRecord(address _patient, string memory _ipfsHash) public {\n        patientRecords[_patient].push(Record(_ipfsHash, msg.sender, block.timestamp));\n        emit RecordAdded(_patient, _ipfsHash, msg.sender, block.timestamp);\n    }\n\n    function getRecords(address _patient) public view returns (Record[] memory) {\n        return patientRecords[_patient];\n    }\n}",
  "sourcePath": "/Users/ishan/WeCare/blockchain/contracts/PatientRecords.sol",
  "compiler": {
    "name": "solc",
    "version": "0.8.20+commit.a1b79de6.Emscripten.clang"
  },
  "schemaVersion": "3.4.16",
  "updatedAt": "2025-02-16T03:55:33.810Z",
  "devdoc": {
    "kind": "dev",
    "methods": {},
    "version": 1
  },
  "userdoc": {
    "kind": "user",
    "methods": {},
    "version": 1
  }
}